:0C0000000C94FC080C947A360C949C368E
:040048000C94730B96
:040074000C94160BC7
:14008C00470D0AD7A33B54E3853F00B04C450000803F1D5ADB
:1400A000843F7B14AE3E000000003333834133330342000039
:1400B40083420000034300000C42000080470000C044000014
:1400C800004500004045000080450000C0450000004600004A
:1400DC00404600008046000048430000804EC2B8324C000073
:1400F000344300000343D00F494000000040000000C00000D7
:14010400804E000000000000803F9A99993E3333333F000078
:1401180000400000000000000000286E756C6C20707472201A
:14012C00706173736564290000000000002020202020202036
:140140002020303030303020202020202020202020202020DB
:140154002020202020904040404040404040404040404040E7
:14016800400C0C0C0C0C0C0C0C0C0C404040404040400909F9
:14017C0009090909010101010101010101010101010101013B
:14019000010101014040404040400A0A0A0A0A0A0202020293
:1401A400020202020202020202020202020202024040404027
:1401B800200000000000000000000000000000000000000013
:1401CC0000000000000000000000000000000000000000001F
:1401E00000000000000000000000000000000000000000000B
:1401F4000000000000000000000000000000000000000000F7
:140208000000000000000000000000000000000000000000E2
:14021C000000000000000000000000000000000000000000CE
:14023000000000000000000000F304353F000000000000004F
:1402440000000080BF4E8F4A41006D29414E8F4A4165D0CBC0
:1402580040DB0F493F0000803FDB0FC93F7A821A40CD13D425
:14026C003EDB0F49C0DB0F4940DB0FC9BFDB0FC93F00000076
:140280000000000000000000000000000000000000000080EA
:140294004E0000803F0000003F000000000000000066746FC1
:1402A80061206572726F723A206E756D62657220746F6F2022
:1402BC006269670066746F61206572726F723A206E756D62FC
:1402D000657220746F6F20736D616C6C0066746F61206572F7
:1402E400726F723A20756E6578706563746564206572726F4C
:1402F80072000000003F17B7D138000020410000803F00004A
:14030C0080BF0000000037000000A00F2C01941100000000E6
:1403200000000000000000C040CDCC4C3E0000503D25642C64
:1403340020493D25642C20443D25640A00616E676C655F546C
:140348006172676572A3BA25660A00616E676C655F54617211
:14035C006765723A25660A000975736172743020696E697444
:14037000204F4B210A00680004765401F7FD000175191A0CB4
:140384006A231B1C1F207274433B4138393A6B6C376F06246B
:140398006D6E7083000000000800000001001832000500002B
:1403AC0020410000D242295C0F3E9A99993E3333733F295C4F
:1403C0000F3E6E016401000000000000000000000000000008
:1403D40000000000000000000000000000000089010000701B
:1403E8000000000024000000020003000000650054FFEF0031
:1403FC0000FA80000B12820001030C30C30E8C8CE914D54099
:140410000213710F8E3883F8833000F883258EF8833000F87E
:1404240083FFFFFFFF0FFEA9D6240004001A8279A1000000DB
:140438003CFFFF00000010000038836FA2003E0330400000E9
:14044C000002CAE3093E8000002000000000000000400000C6
:140460000060000000000C0000000C186E000006920A16C012
:14047400DFFFFF0256FD8CD377FFE1C496E0C5BEAA00000025
:1404880000FFFF0B2B00001657000003594000000000001D06
:14049C00FA00026C1D000000003FFFDFEB003EB3B6000D22E9
:1404B0007800002F3C00000000001942B5000039A20000B3B7
:1404C40065D90E9FC91DCF4C3430000000500000003BB67A19
:1404D800E80064000000C8000000000000100000001000FAE2
:1404EC00921000225E000D229F0001000000320000FF460094
:140500000063D400001000000004D6000004CC000004CC0026
:1405140000000010720000004000000000000000000006000B
:1405280002000500070000000000640000000000000000004D
:14053C000500050064002000000000000000000000000040DD
:14055000000000030000000032F8980000FF650000830F00DC
:1405640000FF9BFC00000000000000000000000000000000ED
:1405780000000000000000000000000000000000000000006F
:14058C0000000000000000100040000000000000060000B253
:1405A0006A000200000001FB830068000000D9FC007CF1FFB3
:1405B400830000000000650000006403E80064002800000070
:1405C800250000000016A000000000100000001000002F00F5
:1405DC0000000001F40000100000280000FFFF4581FFFFFA22
:1405F000720000000000000000004400050005BAC6004778F8
:14060400A20000000100000000000006000000001400002500
:140618004D002F706D000005AE000C02D000000000000000E4
:14062C00000000000000000000001B0000000000000000009F
:1406400000000000000064000000080000000000000000003A
:14065400000000000000000000000000000000000000000092
:1406680000000000000000000000000000000000000000007E
:14067C0000000000000000000000000000000000000000006A
:14069000000000000000000000000000000000000000000056
:1406A40000001B00000000000000000000000E000E00000A01
:1406B800C70004000000000032FFFFFF9C00000B2B00000062
:1406CC00020000000100000064FFE5000000000000000000CF
:1406E000000000000000000001000000000001000000000004
:1406F40000000180000001800000018000002426D300000052
:140708000000000000000600100096003C00000000000000F5
:14071C000000000000000000000C0A4E68CDCF770950166714
:1407300059C619CE820000000000000000000000000000002D
:1407440000000000000000000017D78400030000000000002C
:140758000000000000C7938F9D1E1B1C190000000000000099
:14076C0000000000000000000000000000000000000203185C
:1407800085000040000000000300000003000000000000009A
:14079400004000000000000000000000000000000000000011
:1407A80000000000000000000000000000000000000000003D
:1407BC0000000000000000000000000000677DDF7E72902EB8
:1407D000554CF6E68800000000000000000000000000000010
:1407E40000D8DCB4B8B0D8B9ABF3F8FAB3B7BB8E9EAEF132EE
:1407F800F51BF1B4B8B08097F1A9DFDFDFAADFDFDFF2AAC5DA
:14080C00CDC7A90CC92C97F1A989264666B28999A92D557D92
:14082000B0B08AA896365676F1BAA3B4B280C0B8A89711B2EC
:140834008398BAA3F0240844106418B2B9B49883F1A3295500
:140848007DBAB5B1A38393F0002850F5B2B6AA839328547CC9
:14085C00F1B9A3829361BAA2DADEDFDB819AB9AEF560687048
:14087000F1DABAA2DFD9BAA2FAB9A38292DB31BAA2D9BAA232
:14088400F8DF85A4D0C1BBAD83C2C5C7B8A2DFDFDFBAA0DF66
:14089800DFDFD8D8F1B8AAB38DB4980D355DB2B6BAAF8C966D
:1408AC00198F9FA70E161EB49AB8AA872C547CBAA4B08AB687
:1408C00091325676B28494A4C808CDD8B8B4B0F19982A82DB5
:1408D400557D98A80E161EA22C547C92A4F02C5078F184A8E7
:1408E80098C4CDFCD80DDBA8FC2DF3D9BAA6F8DABAA6DED832
:1408FC00BAB2B68696A6D0F3C841DAA6C8F8D8B0B4B882A8DA
:1409100092F52C548898F135D9F418D8F1A2D0F8F9A884D970
:14092400C7DFF8F883C5DADF69DF83C1D8F40114F1A8824E52
:14093800A884F311D182F5D992289788F109F41C1CD884A857
:14094C00F3C0F9D1D99782F129F40DD8F3F9F9D1D982F4C26E
:1409600003D8DEDF1AD8F1A2FAF9A88498D9C7DFF8F8F883C5
:14097400C7DADF69DFF883C3D8F40114F198A8822EA884F388
:1409880011D182F5D992509788F109F41CD884A8F3C0F8F976
:14099C00D1D99782F149F40DD8F3F9F9D1D982F4C403D8DEEF
:1409B000DFD8F1AD8898CCA809F9D98292A8F57CF1883ACFC0
:1409C400944A6E98DB6931DAADF2DEF9D88795A8F221D1DA1C
:1409D800A5F9F417D9F1AE8ED0C0C3AE82C684C3A88595C842
:1409EC00A588F2C0F1F4010EF18E9EA8C63E56F554F18872D1
:140A0000F40115F19845856EF58E9E0488F142985A8E9E0613
:140A14008869F4011CF1981E1108D0F504F11E9702029836CB
:140A280025DBF9D985A5F3C1DA85A5F3DFD88595A8F309DAC4
:140A3C00A5FAD88292A8F578F1881A849F26889821DAF41DFE
:140A5000F3D8879F39D1AFD9DFDFFBF9F40CF3D8FAD0F8DAF6
:140A6400F9F9D0DFD9F9D8F40BD8F3879F39D1AFD9DFDFF4FF
:140A78001DF3D8FAFCA869F9F9AFD0DADEFAD9F88F9FA8F1C0
:140A8C00CCF398DB45D9AFDFD0F8D8F18F9FA8CAF38809DAE9
:140AA000AF8FCBF8D8F2AD978D0CD9A5DFF9BAA6F3FAF412F1
:140AB400F2D8950DD1D9BAA6F3FADAA5F2C1BAA6F3DFD8F19E
:140AC800BAB2B68696A6D0CAF349DAA6CBF8D8B0B4B8D8ADA4
:140ADC0084F2C0DFF18FCBC3A8B2B68696C8C1CBC3F3B0B449
:140AF0008898A821DB718D9D71859521D9ADF2FAD88597A8D9
:140B040028D9F408D8F28D29DAF405D9F285A4C2F2D8A88DD8
:140B18009401D1D9F411F2D88721D8F40AD8F28498A8C801E6
:140B2C00D1D9F411D8F3A4C8BBAFD0F2DEF8F8F8F8F8F8F8FD
:140B4000F8D8F1B8F6B5B9B08A95A3DE3CA3D9F8D85CA3D914
:140B5400F8D87CA3D9F8D8F8F9D1A5D9DFDAFAD8B18530F7CD
:140B6800D9DED8F830ADDADED8F2B48C99A32D557DA083DF16
:140B7C00DFDFB591A0F629D9FBD8A0FC29D9FAD8A0D051D9EC
:140B9000F8D8FC51D9F9D879D9FBD8A0D0FC79D9FAD8A1F93B
:140BA400F9F9F9F9A0DADFDFDFD8A1F8F8F8F8F8ACDEF8ADC2
:140BB800DE8393AC2C547CF1A8DFDFDFF69D2CDAA0DFD9FA6C
:140BCC00DB2DF8D8A850DAA0D0DED9D0F8F8F8DB55F8D8A8E4
:140BE00078DAA0D0DFD9D0FAF8F8F8F8DB7DF8D89CA88CF5F0
:140BF40030DB38D9D0DEDFA0D0DEDFD8A848DB58D9DFD0DEB6
:140C0800A0DFD0DED8A868DB70D9DFDFA0DFDFD8F1A88890FA
:140C1C002C547C98A8D05C38D1DAF2AE8CDFF9D8B087A8C1FD
:140C3000C1B188A8C6F9F9DA36D8A8F9DA36D8A8F9DA36D85C
:140C4400A8F9DA36D8A8F9DA36D8F78D9DADF818DAF2AEDF53
:140C5800D8F7ADFA30D9A4DEF9D8F2AEDEFAF983A7D9C3C5BA
:140C6C00C7F1889BA77AADF7DEDFA4F8849408A797F300AE7C
:140C8000F29819A488C6A39488F632DFF28393DB09D9F2AAA4
:140C9400DFD8D8AEF8F9D1DAF3A4DEA7F1889B7AD8F38494E6
:140CA800AE19F9DAAAF1DFD8A881C0C3C5C7A39283F628AD91
:140CBC00DED9F8D8A350ADD9F8D8A378ADD9F8D8F8F9D1A180
:140CD000DADEC3C5C7D8A18194F818F2B089ACC3C5C7F1D87C
:140CE400B8B4B09786A8319B069907AB9728889BF00C2014EC
:140CF80040B0B4B8F0A88A9A285078B79BA829517924705906
:140D0C00446938644831F1BBAB88002C547CF0B38BB8A804A4
:140D2000285078F1B088B49726A85998BBABB38B0226466624
:140D3400B0B8F08A9CA82951798B2951798A2470598B20589A
:140D4800718A4469388B3940688A6448318B30496088F1AC5B
:140D5C00002C547CF08CA804285078F1889726A85998AC8C68
:140D700002264666F0899CA82951792470594469386448313C
:140D8400A98809205970AB11384069A8193148608CA83C4150
:140D98005C207C00F187981986A86E767EA999882D557DD8F5
:140DAC00B1B5B9A3DFDFDFAED0DFAAD0DEF2ABF8F9D9B08781
:140DC000C4AAF1DFDFBBAFDFDFB9D8B1F1A3978E60DFB0846C
:140DD400F2C8F8F9D9DED89385F14AB183A308B5839A0810B5
:140DE800B79F10D8F1B0BAAEB08AC2B2B68E9EF1FBD9F41D4A
:140DFC00D8F9D90CF1D8F8F8AD61D9AEFBD8F40CF1D8F8F853
:140E1000AD19D9AEFBDFD8F416F1D8F8AD8D61D9F4F4ACF507
:140E24009C9C8DDF2BBAB6AEFAF8F40BD8F1AED0F8AD51DAC5
:140E3800AEFAF8F1D8B9B1B6A3839C08B9B1839AB5AAC0FDB0
:140E4C003083B79F10B58B93F20202D1ABDADED8F1B080BAC9
:140E6000ABC0C3B284C1C3D8B1B9F38BA391B609B4D9ABDECD
:140E7400B0879CB9A3DDF1B38B8B8B8B8BB087A3A3A3A3B28E
:140E88008BB69BF2A3A3A3A3A3A3A3A3A3A3F1B087B59AA310
:140E9C00F39BA3A3DCBAACDFB9A3A3A3A3A3A3A3A3A3A3A393
:140EB000A3A3A3A3A3D8D8D8BBB3B7F1AAF9DAFFD9809AAA48
:140EC40028B48098A720B79787A86688F07951F1902C870CFA
:140ED800A781976293F071716085940129517990A5F1284C79
:140EEC006C870C95188578A38390284C6C886CD8F3A28200D0
:140F0000F210A8921980A2F2D926D8F188A84DD948D896A8F8
:140F14003980D93CD89580A839A68698D92CDA87A72CD8A8B0
:140F2800899519A980D938D8A88939A980DA3CD8A82EA83934
:140F3C0090D90CD8A8953198D90CD8A809D9FFD801DAFFD87E
:140F50009539A9DA26FFD890A80D8999A810809821DA2ED807
:140F64008999A83180DA2ED8A886963180DA2ED8A8873180E9
:140F7800DA2ED8A88292F34180F1D92ED8A882F31980F1D9C5
:140F8C002ED882ACF3C0A28022F1A62EA72EA92298A829DA7E
:140FA000ACDEFFD8A2F22AF1A92E8292A8F23180A696F1D9F1
:140FB40000AC8C9C0C30ACDED0DEFFD88C9CACD010ACDE804C
:140FC80092A2F24C82A8F1CAF235F19688A6D900D8F1FF0041
:140FDC000400000000000000000000004CCD6C0CC92C3656EB
:140FF00076264666FEF2ABC4AAF1DFDFBBAFDFDFB8AAB38D23
:14100400B4980D355DB8AAAAAAB088C3C5C7D8B1B9F38BA34D
:1410180091B609B4D9DAB1B9F38BA391B6DAB4DAFF000000D4
:14102C00FF0000000100000000000000000000000000094463
:141040004D50D0B4C8EBC7FDB6AFCAA7B0DC202E2E2E2E2E9C
:141054002E0A0A0009444D50D0B4C8EBC7FDB6AFB3C9B9A621
:14106800202E2E2E2E2E2E0A0A00094669666FCBD9B6C8C9B4
:14107C00E8B6A8CAA7B0DC202E2E2E2E2E2E0A0A000946691D
:14109000666FCBD9B6C8C9E8B6A8B3C9B9A62E2E2E2E2E2E57
:1410A4000A0A0009444D50CAB9C4DCCAA7B0DC202E2E2E2E42
:1410B8002E2E0A0A0009444D50CAB9C4DCB3C9B9A6202E2E50
:1410CC002E2E2E2E0A0A0009B3F5CABCB7BDCFF2C9E8B6A8C9
:1410E000C6ABB2EECAA7B0DC202E2E2E2E2E2E0A0A0009B3EA
:1410F400F5CABCB7BDCFF2C9E8B6A8C6ABB2EEB3C9B9A62E0F
:141108002E2E2E2E2E0A0A0009BFAAC6F4444D50B9A6C4DCCD
:14111C00CAA7B0DC202E2E2E2E2E2E0A0A0009BFAAC6F4440A
:141130004D50B9A6C4DCB3C9B9A6202E2E2E2E2E2E0A0A00EC
:1411440009444D50B2C9D1F9CBD9C2CAC9E8B6A8CAA7B0DC2C
:14115800202E2E2E2E2E2E0A0A0009444D50B2C9D1F9CBD968
:14116C00C2CAC9E8B6A8B3C9B9A6202E2E2E2E2E2E0A0A00B1
:14118000094669666FC9E8B6A8CAA7B0DC202E2E2E2E2E2E8E
:141194000A0A00094669666FC9E8B6A8B3C9B9A62E2E2E2E04
:1411A8002E2E0A0A0009B4ABB8D0C6F7C9E8B6A8CAA7B0DC0A
:1411BC00202E2E2E2E2E2E0A0A0009B4ABB8D0C6F7C9E8B6C3
:1411D000A8B3C9B9A6202E2E2E2E2E2E0A0A000909444D504D
:1311E400B3F5CABCBBAF2E2E2E2E2E0A0A20000000000046
:1411F800CFEFD0E1CDBFDEBFCE51D0400AEA08830024E5EEA6
:14120C00FFE010E1EA36F10711F00192FBCF0083E2E1F3E06F
:14122000A0E0B1E011E100E00BBFE73FF10721F0C8953196BA
:141234000D92F9CF0E941F09FFCF269700E815E20E94D50C88
:1412480002E511E00E94C14C0E948B0C0E94FE350E941C340B
:14125C002BE030E10FE010E10E94B634409011105090121003
:1412700020900F1030901010309214102092131050921610F8
:14128400409215102091191030911A10009117101091181019
:141298000E9490421D830C8320900801309009013B822A82B3
:1412AC002090060130900701398228822091040130910501CD
:1412C0000BE110E10E94A4390E94173BACC12090030120FE8B
:1412D40046C0822D8E7F809303012BE030E10FE010E10E948F
:1412E800B63440900D1050900E1020900B1030900C102A82CA
:1412FC003B824C825D82409011105090121020900F103090F2
:1413100010104882598291010BE110E10E94D93910930A1024
:141324000093091020900F01309010012801420C531C5092B0
:141338000B0140920A0120901101309012012801420C531C3D
:14134C0050920D0140920C01920100910A0110910B010E9440
:141360008D0C2090030121FE63C0822D8D7F8093030125E013
:1413740030E107E010E10E9419360091091010910A100E9484
:14138800C442180129018090150190901601609013017090A7
:14139C00140100910710109108100E94C4423A932A931A93E8
:1413B0000A93830194010E9469443801490160911901709195
:1413C4001A01409117015091180100910510109106100E9418
:1413D800C4423A932A931A930A938A019B010E948144830115
:1413EC0094010E946042810192010E9455420E9490421093AF
:141400000A1000930910180130920B0120920A0130920D019E
:1414140020920C0120910C0130910D0100910A0110910B012F
:141428000E948D0C0E946F362090030122FE19C0822D8B7FC8
:14143C008093030180910E018F3020F48F5F80930E010DC0B5
:141450008FE080930E01222433243092100120920F01309203
:141464001201209211012090030123FEDAC0822D877F809366
:14147800030122243324309202012092010180910001813380
:14148C0069F54090191050901A1020901710309018100EE836
:1414A00010E00E949A403A932A931A930A93810192010E9441
:1414B4007842109318100093171030931A1020931910180103
:1414C800290130921C1020921B1050921E1040921D10288361
:1414DC003983980101E411E00E94C14C80910001823369F5FD
:1414F0004090191050901A1020901710309018100EE810E040
:141504000E949A403A932A931A930A93810192010E94554235
:14151800109318100093171030931A1020931910180129012E
:14152C0030921C1020921B1050921E1040921D10288339836A
:1415400098010FE211E00E94C14C80910001833379F486E9C9
:1415540090E09093100180930F012224332430921201209298
:14156800110181E080930E0180910001843379F42224332407
:14157C003092100120920F0186E990E090931201809311018C
:1415900081E080930E0180910001853339F5409015105090F7
:1415A4001610209013103090141030921810209217105092B1
:1415B8001A10409219104090191050901A1020901710309060
:1415CC00181030921C1020921B1050921E1040921D1048823F
:1415E000598291010FE211E00E94C14C80910001863381F4B9
:1415F400409011105090121020900F1030901010309214105B
:1416080020921310509216104092151087E380930001222436
:14161C003324309202012092010153CE269608950A931A9326
:141630002A933A938A939A930FB70A938FE791EC90938900D0
:141644008093880080910101909102010196909302018093F0
:14165800010123E030E08C010E94FC3F0030010729F4809199
:14166C0003018160809303012AE030E000910101109102011D
:141680000E94FC3F0030010729F48091030182608093030116
:1416940024E630E000910101109102010E94FC3F00300107DC
:1416A80029F48091030184608093030128EE33E00091010145
:1416BC00109102010E94FC3F0030010729F480910301886047
:1416D0008093030109910FBF9991899139912991199109917B
:1416E40018950A921A922A923A924A925A926A927A928A9289
:1416F8009A920A931A932A933A938A939A93AA93BA93EA938D
:14170C00FA930FB60A92AA92BA9224972CB020920001822D5A
:14172000803591F48AE090E0998388832227332707EE1FE0E3
:141734000E94B63F222433243092E60F2092E50F20921B0142
:1417480080910001893499F48AE090E099838883222733278D
:14175C0001EF1FE00E94B63F81E090E09093E60F8093E50F03
:14177000222420921B0180910001843499F48AE090E0998304
:141784008883222733270BEF1FE00E94B63F82E090E090931E
:14179800E60F8093E50F222420921B010091000111270E94C1
:1417AC00784800300107E1F020901B0133242101822D8F5F7E
:1417C00080931B012091E50F3091E60F0AE010E00E94AE4021
:1417D40087EE9FE01801280E391EE42DFF27E20DF31D209081
:1417E8000001208280910001853409F059C007EE1FE00E94D7
:1417FC00D9445801B0920501A092040101EF1FE00E94D94436
:141810005801B0920701A09206010BEF1FE00E94D9445801D7
:14182400B0920901A092080100910401109105010E94C24246
:14183800109324100093231030932610209325100091060186
:14184C00109107010E94C242109328100093271030932A1097
:141860002093291000910801109109010E94C24210932C10BE
:1418740000932B1030932E1020932D1020900801309009011E
:141888003B822A822090060130900701398228822091040149
:14189C00309105010DE111E00E94C14C2496B990A99009900E
:1418B0000FBEF991E991B991A991999189913991299119915D
:1418C400099199908990799069905990499039902990199045
:1418D8000990189587B3806687BB84B38F6084BB85B3807FB8
:1418EC0085BB0895222433243BBC2ABC39BC28BC8FB5836091
:141900008FBD8EB588608EBD8FB5806A8FBD8EB583608EBD26
:141914000895E2DFEBCF0E942741A901B8016030E0E07E0765
:141928005CF485B38C7F85BBA89A0FEF1FEF9B010E94AE405E
:14193C00B80104C085B38C7F85BBA99A88EE93E08617970730
:1419500014F468EE73E04030E0E05E075CF485B3837F85BB73
:14196400AA9A0FEF1FEF9A010E94AE40A80104C085B3837F4D
:1419780085BBAB9A88EE93E08417950714F448EE53E01B0129
:14198C00232C332427FC30942BBC6ABD1A01232C332427FCC8
:1419A000309429BC48BD0C942C410E943141580186E0809392
:1419B400950015014424552440E054E264EF70E05A924A92D2
:1419C8003A922A928A019B010E941E4040E150E060E070E07B
:1419DC007A936A935A934A930E941E401801290141E050E08F
:1419F00060E070E0241A350A460A570A40E051E060E070E044
:141A04007A936A935A934A93810192010E94204009B915010B
:141A18004424552440E054E264EF70E05A924A923A922A9290
:141A2C008A019B010E941E4040E150E060E070E07A936A9394
:141A40005A934A930E941E401801290141E050E060E070E0A4
:141A5400241A350A460A570A40E051E060E070E07A936A9365
:141A68005A934A93810192010E941E400093900022242BB83F
:141A7C0088E98AB978940C9438415D9BFECF0CB908950A301C
:141A900021F45D9BFECF89E08CB95D9BFECF0CB901E010E05F
:141AA40008958BB38C7F8BBBD098D1980895000008954A931A
:141AB8005A930AC042E850E002C04150504040304507D9F79A
:141ACC00015010400030010799F75991499108954A935A9372
:141AE0000AC046E752E002C04150504040304507D9F7015009
:141AF40010400030010799F7599149910895D198D098D5DFE0
:141B0800C99902C0002709C0D19ACFDFC99B02C0002703C08C
:141B1C00D19AC9DF01E00895D09AC5DFD19AC3DFD098C1DF01
:141B3000D198BFCFD09ABDDFD19ABBDFD098B9DFD09AB7CFAF
:141B4400D09AB5DFD198B3DFD098B1DFD09AAFCFD09AADDFBE
:141B5800D198ABDFD098A9DFC99B03C0D09A002702C0D09AB2
:141B6C0001E00895AA924A93A02E48E00BC0D09A9ADFA7FE85
:141B800002C0D19801C0D19AAA0C93DFD09891DF242E332451
:141B94004150222081F7D09A4991A99008954A936A9368E0B6
:141BA8004427D19808C0440FD09A7FDFD0987DDFC99B01C089
:141BBC004160262E33246150222099F7D09A042F69914991D5
:141BD00008950E941441E22E402FC884AA84BB8490DF0023A3
:141BE40011F4002724C0042F000FC0DFB1DF002319F496DFC7
:141BF80000271BC00E2DB8DFA9DF442755270EC0FA01EA0DD6
:141C0C00FB1D0081AFDFA0DFE02E002319F484DF002709C08D
:141C20004F5F5F4F2C2C3324421553056CF37ADF01E00C94BD
:141C3400FE400E941441C22EA02E2497EC844E855F855B83E9
:141C48004A83E8822C2D0A2DC0DF002311F0002701C00FEF18
:141C5C0024960C94FE400E941441C22EA02E2497EC844E8529
:141C70005F855B834A83E8822C2D0A2D25D0002311F0002797
:141C840001C00FEF24960C94FE400E941641C22EE02EAE80D0
:141C980034DF002311F4002711C00E2D000F64DF55DF002321
:141CAC0019F43ADF002708C00C2D5CDF4DDF0A2D59DF4ADFD7
:141CC00031DF01E00C94F7400E944D41C22EA02E68854A859E
:141CD4005B8515DF002311F4002723C00A2D000F45DF36DF77
:141CE800002319F41BDF00271AC00C2D3DDF2EDF04DF0A2D41
:141CFC00000F016037DF28DF0CC04DDFA02EFA01A0826130D3
:141D100011F418DF01C00EDF4F5F5F4F6A95662391F700DFCA
:141D240001E00C9456410027112708950E943F41C22E402F16
:141D3800E4DE042F19DF0ADF0C2D16DF07DFDDDE042F0F5F51
:141D4C0011DF02DF28DFC02EAC2CE6DE0A2D0C9446410E9421
:141D60001641C22EE02EAE80CCDE0E2D01DFF2DE0C2DFEDE42
:141D7400EFDE0A2DFBDEECDED3DE0C94F7400E943F41422F99
:141D8800C02E242F0C2DD0DFA02E242F2F5F0C2DCBDFC02E9E
:141D9C001A2D0C2D0C944641AA92A02E25972090CD01222006
:141DB00011F1AA2019F082E08C8302C022242C82CE010496BA
:141DC4009B838A8381E08883E091B001F091B1012785E09102
:141DD800B201F091B30100810E941B0E002319F00FEF1FEF8B
:141DEC0037C02C802092BC0131C02090B601222019F40FEF2C
:141E00001FEF2CC0AA2039F02090BC01222019F000271127CA
:141E140023C0AA2019F081E08C8302C022242C82CE01049675
:141E28009B838A8381E08883E091B001F091B1012785E0919D
:141E3C00B201F091B30100810E941B0E002319F00FEF1FEF26
:141E500005C02C802092BC01002711272596A9900895AA9272
:141E64002597AA2420C04090B0015090B101F2012384A2149D
:141E780019F02588A21409F413C0CE0104969B838A8381E025
:141E8C0088832A2DE091B201F091B30100810E94310E002302
:141EA00019F00FEF1FEF0AC0A394E091B201F091B30123801C
:141EB400A214C8F2002711272596A99008950E941841690155
:141EC800A02E24974090B0015090B101F2012384A21419F011
:141EDC002588A21419F40FEF1FEF17C0E091B201F091B30146
:141EF0002380A21418F00FEF1FEF0DC0DB82CA8281E088838F
:141F04002A2DE091B201F091B30100810E94310E11272496C5
:141F18000C94F2400E941D412A9780E88C83CE0104969B8324
:141F2C008A8381E08883E091B001F091B1012289E091B20104
:141F4000F091B30100810E941B0E002319F00FEF1FEFDBC039
:141F540004E610E00E946E0D22242C82CE0104969B838A83FA
:141F680081E08883E091B001F091B1012289E091B201F09154
:141F7C00B30100810E941B0E002319F00FEF1FEFBEC0CE01CC
:141F900004969B838A8386E08883E091B001F091B101268903
:141FA400E091B201F091B30100810E94310EA02E002319F074
:141FB8000FEF1FEFA6C08F818170880F49854170440F440FE6
:141FCC00482B8D818170482B79F0413021F481E08093BE01FA
:141FE00030C0423021F422242092BE012AC00FEF1FEF8BC07E
:141FF400CE0104969B838A8381E08883E091B001F091B10184
:142008002381E091B201F091B30100810E94310EA02E002374
:14201C0019F00FEF1FEF73C04C814F7019F40FEF1FEF6DC096
:14203000443021F481E08093BE0103C022242092BE018FEFE8
:142044008093B6018093B4018093B5018093B7019FEF9093B1
:14205800BA018093B9018093BB018093BD0181E08093B8011F
:14206C008093CB0122242092CC012092C0012092BF018AE06D
:1420800090E0998388832227332701EC11E00E94B63F222457
:142094002092CD012092CE0133243092D0012092CF0100EDDE
:1420A80017E068D458010030010719F00FEF1FEF28C002E081
:1420BC00F7D458010030010719F00FEF1FEF1FC00AE210E0E4
:1420D000A4D558010030010719F00FEF1FEF15C002E310E033
:1420E40003D658010030010719F00FEF1FEF0BC00027EDD6B4
:1420F80058010030010719F00FEF1FEF02C0002711272A964D
:14210C000C9422414A93402F269788E2841718F40FEF1FEF96
:1421200077C0442321F500270E94411A22242C8287E08D8368
:14213400CE0104969B838A8382E08883E091B001F091B10141
:142148002289E091B201F091B30100810E941B0E002319F007
:14215C000FEF1FEF57C022242092BF010027112751C001E043
:142170000E94411A80E28C83413031F422242D8205E010E08D
:142184004AD517C085E0841730F081E08D8305E010E041D5D5
:142198000EC084E1841730F082E08D830AE010E038D505C027
:1421AC0083E08D8304E110E032D58D81880F880F880F880F66
:1421C000880F880F87608D83CE0104969B838A8382E08883E5
:1421D400E091B001F091B1012289E091B201F091B30100811D
:1421E8000E941B0E002319F00FEF1FEF0DC088E08093B601E1
:1421FC0022242092B80181E08093BF01002763D6002711272B
:142210002696499108950E941D415901A8012A978091B601FB
:14222400807719F40FEF1FEF2DC0CE0104969B838A8386E0AF
:142238008883E091B001F091B1012485E091B201F091B30130
:14224C0000810E94310E002319F00FEF1FEF16C02D803C80A5
:14226000FA01318220822F803E803382228229843884358234
:142274002482AA2011F4BB2019F085010E942B250027112726
:142288002A960C9422410E941D415901A8012A972090B60154
:14229C0023FC03C00FEF1FEF2DC0CE0104969B838A8386E059
:1422B0008883E091B001F091B1012585E091B201F091B301B7
:1422C40000810E94310E002319F00FEF1FEF16C02D803C802D
:1422D800FA01318220822F803E8033822282298438843582BC
:1422EC002482AA2011F4BB2019F085010E942B2500271127AE
:142300002A960C9422410E9416417901580126972090B60116
:14231400222019F40FEF1FEF6AC0CE0104969B838A8382E03A
:142328008883E091B001F091B1012685E091B201F091B3013D
:14233C0000810E94310E002319F00FEF1FEF53C02D803C8077
:14235000D32CC22CEE2011F4FF2019F087010E942B250EEBDE
:1423640010E00E949A401801290186010E94C4423801490104
:14237800E091B201F091B301068117810E94C4423A932A93A7
:14238C001A930A93830194010E94784238014901E091B201D7
:1423A000F091B301048115810E94C2423A932A931A930A935F
:1423B400830194010E94EF42380149010AEB10E00E949A4045
:1423C8003A932A931A930A93830194010E94604281019201BB
:1423DC000E9469440E949042F501008311832283338300279B
:1423F000112726960C94F7400E941D41A8016C9740304507A6
:1424040019F40FEF1FEF2DC1FA0120803180428053808894C0
:142418002220320442045204D1F43496208031804280538027
:14242C008894222032044204520479F4FA01389620803180E5
:14244000428053808894222032044204520419F40027112757
:1424540008C1CE0104969B838A8383E0888323E0E091B20182
:14246800F091B30100810E94310E002319F00FEF1FEFF5C0DC
:14247C008C8199279595879595958795959587959595879567
:1424900008968F7090709F8B8E8B8D8199279595879595951A
:1424A4008795959587959595879508968F709070998F888FA0
:1424B8008E8199279595879595958795959587959595879529
:1424CC0008968F7090709B8F8A8F8E899F89805C9F4F1C01F6
:1424E000442437FC4094552447FC5094FA0100811181228128
:1424F4003381000F111F221F331F5A924A923A922A920E945C
:142508001E401B870A87888D998D805C9F4F1C01442437FC71
:14251C004094552447FC5094FA010481158126813781000FB3
:14253000111F221F331F5A924A923A922A920E941E401D87E0
:142544000C878A8D9B8D805C9F4F1C01442437FC40945524E2
:1425580047FC5094FA010085118522853385000F111F221F53
:14256C00331F5A924A923A922A920E941E401F870E87CE01AF
:1425800004969B838A8386E0888326E0E091B201F091B301B2
:1425940000810E94310E002319F00FEF1FEF61C02D803C800F
:1425A8004424398A288A2F803E8044243B8A2A8A298438848B
:1425BC0044243D8A2C8A288839884A845B84420C531C5B866A
:1425D0004A862A883B884C845D84420C531C5D864C862C88DB
:1425E4003D884E845F84420C531C5F864E868A859B85892F0C
:1425F800992787FD909590708C838A859B8590708D838C8507
:14260C009D85892F992787FD909590708E838C859D85907033
:142620008F838E859F85892F992787FD9095907088878E851A
:142634009F8590708987CE0104969B838A8386E0888326E053
:14264800E091B201F091B30100810E941B0EA02E002319F0DF
:14265C000FEF1FEF02C0002711276C960C942241AA92259740
:142670002090B601222019F40FEF1FEF45C122242C82CE01CB
:1426840004969B838A8381E08883E091B001F091B101278510
:14269800E091B201F091B30100810E941B0E002319F00FEF5F
:1426AC001FEF2CC1CE0104969B838A8381E08883E091B001FD
:1426C000F091B1012581E091B201F091B30100810E941B0E88
:1426D400002319F00FEF1FEF15C1CE0104969B838A8381E0EF
:1426E8008883E091B001F091B1012481E091B201F091B30180
:1426FC0000810E941B0EA02E002319F00FEF1FEFFDC020900B
:14271000CD01222009F47AC08CE08C83CE0104969B838A835F
:1427240081E08883E091B001F091B1012481E091B201F09196
:14273800B30100810E941B0EA02E002319F00FEF1FEFDEC0E9
:14274C0002E310E00E946E0D80EC8C832090B60120FE02C0C5
:1427600080628C83CE0104969B838A8381E08883E091B00152
:14277400F091B1012481E091B201F091B30100810E941B0ED4
:14278800A02E002319F00FEF1FEFBAC02090BC01222019F005
:14279C0082E08C8302C022242C82CE0104969B838A8381E00D
:1427B0008883E091B001F091B1012785E091B201F091B301B0
:1427C40000810E941B0EA02E002319F00FEF1FEF99C0222410
:1427D8002C82CE0104969B838A8381E08883E091B001F0919C
:1427EC00B1012581E091B201F091B30100810E941B0EA02E0E
:14280000002309F47FC00FEF1FEF7EC084E08C83CE0104963F
:142814009B838A8381E08883E091B001F091B1012481E091AE
:14282800B201F091B30100810E941B0EA02E002319F00FEF70
:14283C001FEF64C02090BD01222021F42090B601222019F4DB
:1428500080E48C8302C080E68C83CE0104969B838A8381E0D5
:142864008883E091B001F091B1012481E091B201F091B30102
:1428780000810E941B0EA02E002319F00FEF1FEF3FC002E316
:14288C0010E00E946E0D2090BC01222019F081E08C8302C041
:1428A00022242C82CE0104969B838A8381E08883E091B0010E
:1428B400F091B1012785E091B201F091B30100810E941B0E8C
:1428C800A02E002319F00FEF1FEF1AC08BEB91E09B838A830A
:1428DC0081E08883E091B001F091B1012581E091B201F091DC
:1428F000B30100810E941B0EA02E002319F00FEF1FEF02C00C
:14290400002711272596A99008954A935A934091B401552703
:142918004030450769F04130E0E05E0779F04230E0E05E0700
:14292C0089F04330E0E05E0799F018C08AEF90E0F80191832F
:14294000808317C084EF91E0F8019183808311C088EE93E0FB
:14295400F801918380830BC080ED97E0F8019183808305C0DB
:1429680022243324F8013182208200271127599149910895B0
:14297C004A935A93A80125972090B601222019F40FEF1FEF56
:1429900054C0443FE1E05E07D1F084EF91E0841795072CF07E
:1429A4004A3FE0E05E0771F019C0483EE3E05E0779F0483E9A
:1429B800E3E05E078CF0403DE7E05E0751F00CC022242C82BD
:1429CC000CC088E08C8309C080E18C8306C088E18C8303C07A
:1429E0000FEF1FEF2AC02C802694269426943090B401321458
:1429F40019F4002711271FC0CE0104969B838A8381E0888384
:142A0800E091B001F091B1012681E091B201F091B3010081E4
:142A1C000E941B0E002319F00FEF1FEF08C02C8026942694BB
:142A300026942092B4010027112725965991499108954A9319
:142A44005A934091B50155274030450769F04130E0E05E07E3
:142A580069F04230E0E05E0769F04330E0E05E0769F010C060
:142A6C0082E0F80180830FC084E0F80180830BC088E0F8019D
:142A8000808307C080E1F801808303C00FEF1FEF0AC02090D2
:142A9400BE01222021F0F8012080220C20820027112759916A
:142AA800499108950E941D41A02E25972090B601222019F463
:142ABC000FEF1FEF52C04A2D55274830E0E05E07C9F088E037
:142AD00090E0841795074CF04230E0E05E0751F04430E0E003
:142AE4005E0749F011C04031E0E05E0751F00CC022242C82D8
:142AF8000CC088E08C8309C080E18C8306C088E18C8303C04D
:142B0C000FEF1FEF2AC02C802694269426943090B501321429
:142B200019F4002711271FC0CE0104969B838A8381E0888356
:142B3400E091B001F091B1012781E091B201F091B3010081B6
:142B48000E941B0E002319F00FEF1FEF08C02C80269426948E
:142B5C0026942092B5010027112725960C9422414A935A935C
:142B70004091B70155274030450709F444C04130E0E05E07F9
:142B8400E1F04230E0E05E07F1F04330E0E05E0701F14430F6
:142B9800E0E05E0711F14530E0E05E0709F423C04630E0E052
:142BAC005E0709F424C04730E0E05E0709F425C024C08CEBF6
:142BC00090E0F8019183808323C082E690E0F80191838083B6
:142BD4001DC08AE290E0F8019183808317C084E190E0F8017F
:142BE8009183808311C08AE090E0F801918380830BC085E0D7
:142BFC0090E0F8019183808305C022243324F8013182208295
:142C1000002711275991499108954A935A93A8012597209011
:142C2400B601222019F40FEF1FEF49C04C3BE0E05E0718F0CD
:142C380081E08C831EC04236E0E05E0718F082E08C8317C04D
:142C4C004A32E0E05E0718F083E08C8310C04431E0E05E07EF
:142C600018F084E08C8309C04A30E0E05E0718F085E08C8301
:142C740002C086E08C832C803090B701321419F4002711273F
:142C88001CC0CE0104969B838A8381E08883E091B001F091B9
:142C9C00B1012281E091B201F091B30100810E941B0E002307
:142CB00019F00FEF1FEF05C02C802092B70100271127259606
:142CC4005991499108952090CD01222019F00FEF1FEF09C0FD
:142CD8002090B9013090BA01F80131822082002711270895B9
:142CEC004A935A93A80125972090B601222019F40FEF1FEFE3
:142D000058C02090CD01222019F00FEF1FEF51C02090BF0151
:142D1400222079F04030450751F088E290E08417950728F0DA
:142D2800042FF2D90027112740C00027EDD94430E0E05E07B4
:142D3C0018F444E050E007C088EE93E08417950710F448EE02
:142D500053E008EE13E09A010E94FE3FC80101978C83CE019A
:142D640004969B838A8381E08883E091B001F091B101218133
:142D7800E091B201F091B30100810E941B0E002319F00FEF78
:142D8C001FEF11C02C8133272F5F3F4F08EE13E00E94E23F85
:142DA0001093BA010093B9011695079536DF002711272596FE
:142DB4005991499108950E941D4158014091B40155274030DF
:142DC800450769F04130E0E05E0799F04230E0E05E07C9F0E3
:142DDC004330E0E05E07F9F028C006EB10E00E949A40F50127
:142DF000008311832283338321C002EB10E00E949A40F5012D
:142E0400008311832283338317C00EEA10E00E949A40F50117
:142E180000831183228333830DC00AEA10E00E949A40F50111
:142E2C00008311832283338303C00FEF1FEF02C00027112730
:142E40000C9422414A935A934091B50155274030450769F099
:142E54004130E0E05E0779F04230E0E05E0789F04330E0E028
:142E68005E0799F018C080E090E4F8019183808315C08CE962
:142E7C009FE1F801918380830FC080E090E1F8019183808302
:142E900009C080E098E0F8019183808303C00FEF1FEF0DC0E1
:142EA4002090BE01222039F0F80120803180369427943182BE
:142EB8002082002711275991499108952090BB01F80120829D
:142ECC000027112708950E943141602F442755276E7F2090CF
:142EE000CD01222019F0002711272FC02090B601222019F4C1
:142EF4000FEF1FEF28C0A090BB012090B601362E322030920B
:142F0800BB01361619F04FEF5FEF02C044275527662321F4D1
:142F1C002090BF01222021F001E00E94D20E03C000270E94EF
:142F3000D20E662349F09ADB0030010729F0A092BB010FEF39
:142F44001FEF01C08A010C9438412090B601222021F081E0EB
:142F5800F801808303C02224F80120820027112708954A93EC
:142F6C00402F2597842F807719F081E08C8307C0442319F0CC
:142F800022242C8202C080E48C83CE0104969B838A8381E01F
:142F94008883E091B001F091B1012289E091B201F091B301C5
:142FA80000810E941B0E002331F022242092B6010FEF1FEFCA
:142FBC0045C08C818F7B8093B80122242C8246FD03C0822D70
:142FD00084608C8345FD03C08C8182608C8344FD03C08C81E6
:142FE40081608C8343FD03C08C8188638C83CE0104969B8358
:142FF8008A8381E08883E091B001F091B1012389E091B20127
:14300C00F091B30100810E941B0E002331F022242092B6013C
:143020000FEF1FEF11C0442321F0483011F0002728D24093DA
:14303400B60122242092BF0102E310E00E946E0D00271127C8
:14304800259649910895AA92BA92580126972090B6012220FB
:14305C0019F40FEF1FEF1EC0CE0104969B838A8382E0888368
:14307000E091B001F091B1012089E091B201F091B301008174
:143084000E94310E002319F00FEF1FEF07C02D803C80F501F9
:1430980031822082002711272696B990A99008950E94CD3FE7
:1430AC000E9412416097AE8CBF8C6AA17BA1CC2444275527A1
:1430C0002090CD01222019F00FEF1FEF4CC12224E8A1F9A1B1
:1430D40020822090B601222019F40FEF1FEF41C12090BB0116
:1430E800222019F40FEF1FEF3AC12090BB0126FE03C08C2D72
:1430FC008E5FC82E2090BB0125FE03C08C2D8E5FC82E20903F
:14311000BB0124FE03C08C2D8E5FC82E2090BB0123FE03C01E
:143124008C2D8A5FC82ECE0104969B838A8382E08883E0918D
:14313800B001F091B1012285E091B201F091B30100810E947C
:14314C00310E002319F00FEF1FEF07C12D803C80F32CE22C9A
:143160002C2C3324E214F30418F400271127FBC0E091B20175
:14317400F091B30121803280369427942E143F04F0F4CE0102
:1431880004969B838A8381E08883E091B001F091B101218903
:14319C00E091B201F091B30100810E94310E002319F00FEF3A
:1431B0001FEFD9C02C8024FE04C058DA0EEF1FEFD2C085017D
:1431C4000E942B25CE0104969B838A83C882E091B001F09184
:1431D800B1012385E091B201F091B30100810E94310EA02E00
:1431EC00002319F00FEF1FEFB8C02C2D332787010E94FE3F05
:14320000C8010197FB0180832224E8A1F9A120822C2C3324A0
:143214004215530509F440C02090BB0123FE3CC0CE01049608
:14322800FA013196E80FF91F2080CE010496FA01E80FF91FAE
:14323C003080EC8DFD8D31822082CE010496FA013396E80F52
:14325000F91F2080CE010496FA013296E80FF91F3080EC8D4E
:14326400FD8D33822282CE010496FA013596E80FF91F208095
:14327800CE010496FA013496E80FF91F3080EC8DFD8D35829B
:14328C002482E8A1F9A18081886080834A5F5F4F2C2C332473
:1432A00042155305E1F02090BB0126FE18C0CE010496FA01CE
:1432B4003196E80FF91F2080CE010496FA01E80FF91F30806D
:1432C800EA8DFB8D31822082E8A1F9A18081806480834E5FE6
:1432DC005F4F2C2C332442155305E1F02090BB0125FE18C09A
:1432F000CE010496FA013196E80FF91F2080CE010496FA018C
:14330400E80FF91F3080EA8DFB8D33822282E8A1F9A180817A
:14331800806280834E5F5F4F2C2C332442155305E1F0209082
:14332C00BB0124FE18C0CE010496FA013196E80FF91F2080FD
:14334000CE010496FA01E80FF91F3080EA8DFB8D35822482FA
:14335400E8A1F9A18081806180834E5F5F4F002711276096AD
:143368000E940741249608950E941441A90178012697AE8407
:14337C00BF842090CD01222019F40FEF1FEF73C02090B60187
:14339000222019F40FEF1FEF6CC0CE0104969B838A8382E0AC
:1433A4008883E091B001F091B1012285E091B201F091B301B5
:1433B80000810E94310E002319F00FEF1FEF55C02D803C80E9
:1433CC00D32CC22CCE14DF0430F42224F50120820FEF1FEF2D
:1433E00048C0E091B201F091B30121803280369427942C1460
:1433F4003D04F0F4CE0104969B838A8381E08883E091B0017E
:14340800F091B1012189E091B201F091B30100810E94310E18
:14341C00002319F00FEF1FEF26C02C8024FE04C01FD90EEFF7
:143430001FEF1FC05B834A83E882E091B001F091B101238589
:14344400E091B201F091B30100810E94310E402F002319F01E
:143458000FEF1FEF0AC0970186010E94FE3FC8010197F50135
:14346C0080830027112726960C94FE400093CB010027112792
:143480000895AA92A02E25972090CC012A1419F400271127AE
:1434940030C0AA2019F080E38C8302C022242C822090BD01CB
:1434A800222019F08C8182608C832090CB01222019F08C81F3
:1434BC0080688C83CE0104969B838A8381E08883E091B001E3
:1434D000F091B1012489E091B201F091B30100810E941B0E63
:1434E400002319F00FEF1FEF04C0A092CC01002711272596BF
:1434F800A99008950E944D4158012B97CE0107969B838A8308
:14350C0084E088832DE0E091B201F091B30100810E94310E74
:14352000002319F007E010E075C08A85807382958F709F8127
:14353400907E969596959695982B9C838A858C70982F969515
:1435480096958885807E869586958695892B8D838A85837022
:14355C009985907E969596959695982B9E8344274EC0CE0182
:143570000496E42FFF27E80FF91F2080222089F4E42FFF27CD
:14358400EE0FFF1FEE0FFF1FEA0DFB1D06EA10E00E949A4092
:14359800008311832283338333C0E42FFF27EE0FFF1FEE0F69
:1435AC00FF1FEA0DFB1D02EA10E00E949A40008311832283CA
:1435C000338316C0242E3324220C331C220C331C2A0C3B1C3B
:1435D40021010EE910E00E949A405A924A920E945F44F2015E
:1435E8000083118322833383CE010496C42EDD24C80ED91E34
:1435FC00F6016081615060836623F1F64395433008F4AFCF1A
:14361000002711272B960C9456410E9414416901780164977A
:14362400AA24BB248E010C5F1F4F66DF442755271A01220C08
:14363800331C220C331C3101F101EC0DFD1D20803180428068
:14364C005380F301EE0DFF1D008111812281338102191309EB
:14366000240935090E94DC510E94CF42180129010EEB10E03D
:143674000E949A403A932A931A930A93810192010E94EF420A
:14368800088319832A833B83CE010496FA01EE0FFF1FEE0F20
:14369C00FF1FE80FF91F208031804280538006EA10E00E9485
:1436B0009A403A932A931A930A93810192010E94A74409F4B9
:1436C40040C0088119812A813B81CE0104961A01220C331C67
:1436D800220C331C280E391E3A922A920E94E642180129013F
:1436EC000AE910E00E949A403A932A931A930A938101920182
:143700000E947842088B198B2A8B3B8B088919892A893B89FD
:143714000E94EA4A3A932A931A930A932091AE013091AF0126
:143728000091AC011091AD010E94A74444F501E010E09A01CE
:14373C000E949641A02AB12A20C0088119812A813B8184EA83
:1437500091E09A938A930E949C4474F0CE012091AA013091D8
:14376400AB010091A8011091A9019A938A930E949C443CF424
:1437780001E010E09A010E949641A02AB12A4F5F5F4F4330E4
:14378C00E0E05E070CF450CF850164960C94FE400E94CD3FD9
:1437A0000E94124169016397AA24BB24CE0104969B838A837B
:1437B40083E088832DE0E091B201F091B30100810E94310ECB
:1437C800002319F007E010E0DCC08C818F718C838D818F7124
:1437DC008D838E818F718E83442755271A01220C331C220CFC
:1437F000331C3101F101EC0DFD1D2080318042805380F30165
:143804000D8C1E8CE00DF11D008111812281338102191309D1
:14381800240935090E94DC510E94CF42180129010EEB10E083
:14382C000E949A403A932A931A930A93810192010E94EF4250
:143840000B871C872D873E87CE010496FA01E80FF91F2080B3
:14385400222009F46FC006E910E00E949A40180129012091A3
:143868008B0130918C010091890110918A010E94CD423A93AD
:14387C002A931A930A93810192010E94EF420F831887298768
:143890003A870EC002E910E00E949A40CE0107969A938A9388
:1438A4000E945F440F83188729873A87CE0104967A01E80E4F
:1438B800F91EF701608161506083662339F70B851C852D85DC
:1438CC003E85CE0107969A938A930E94E642180129010AE96F
:1438E00010E00E949A403A932A931A930A93810192010E94DD
:1438F40078420F87188B298B3A8B0F85188929893A890E9408
:14390800EA4A3A932A931A930A932091A2013091A301009159
:14391C00A0011091A1010E94A7444CF501E010E09A010E94D7
:143930009641A02AB12A21C00B851C852D853E8588E991E09E
:143944009A938A930E949C447CF0CE010B9620919E013091B6
:143958009F0100919C0110919D019A938A930E949C443CF452
:14396C0001E010E09A010E949641A02AB12A4F5F5F4F4330EE
:14398000E0E05E070CF430CF850163960E940741249608954F
:143994000E94CD3F0E9412416C97AAA481E08C8322242D82C6
:1439A800CE0104969B838A8382E08883E091B001F091B101B5
:1439BC002289E091B201F091B30100810E941B0E002319F07B
:1439D0000FEF1FEFC0C308EC10E00E946E0D22242C82CE0190
:1439E40004969B838A8381E08883E091B001F091B10127859D
:1439F800E091B201F091B30100810E941B0E002319F00FEFEC
:143A0C001FEFA3C3CE0104969B838A8381E08883E091B00110
:143A2000F091B1012581E091B201F091B30100810E941B0E14
:143A3400C02E002319F00FEF1FEF8BC3CE0104969B838A8376
:143A480081E08883E091B001F091B1012289E091B201F09159
:143A5C00B30100810E941B0EC02E002319F00FEF1FEF73C3FA
:143A7000CE0104969B838A8381E08883E091B001F091B101ED
:143A84002789E091B201F091B30100810E941B0EC02E0023C8
:143A980019F00FEF1FEF5BC3CE0104969B838A8381E08883E7
:143AAC00E091B001F091B1012481E091B201F091B301008132
:143AC0000E941B0EC02E002319F00FEF1FEF43C38CE08C8380
:143AD400CE0104969B838A8381E08883E091B001F091B10189
:143AE8002481E091B201F091B30100810E941B0EC02E00236F
:143AFC0019F00FEF1FEF29C30FE010E00E946E0DE091D10176
:143B1000F091D20121842C82CE0104969B838A8381E08883FA
:143B2400E091B001F091B1012281E091B201F091B3010081BB
:143B38000E941B0EC02E002319F00FEF1FEF07C3E091D1017B
:143B4C00F091D20120842C82CE0104969B838A8381E08883BF
:143B6000E091B001F091B1012181E091B201F091B301008180
:143B74000E941B0EC02E002319F00FEF1FEFE9C2AA2041F0A6
:143B8800E091D101F091D2018285806E8C8306C0E091D10185
:143B9C00F091D20122842C82CE0104969B838A8381E088836D
:143BB000E091B001F091B1012681E091B201F091B30100812B
:143BC4000E941B0EC02E002319F00FEF1FEFC1C2AA2041F07E
:143BD800E091D101F091D2018385806E8C8303C02090940135
:143BEC002C82CE0104969B838A8381E08883E091B001F09174
:143C0000B1012781E091B201F091B30100810E941B0EC02EC3
:143C1400002319F00FEF1FEF9CC2AA2021F008EC10E00E94A5
:143C28006E0D80E48C83CE0104969B838A8381E08883E09129
:143C3C00B001F091B1012481E091B201F091B30100810E946F
:143C50001B0EA02E002319F00FEF1FEF7CC288E78C83CE01A6
:143C640004969B838A8381E08883E091B001F091B101258120
:143C7800E091B201F091B30100810E941B0EA02E002319F099
:143C8C000FEF1FEF62C200919501109196010E946E0D222432
:143CA0002C82CE0104969B838A8381E08883E091B001F091BF
:143CB400B1012581E091B201F091B30100810E941B0EA02E31
:143CC800002319F00FEF1FEF42C2CE0104969B838A8382E0B6
:143CDC008883E091B001F091B1012285E091B201F091B30174
:143CF00000810E94310EA02E002319F00FEF1FEF2AC22D80BF
:143D04003C80B32CA22C2CE030E085010E94FE3FE02EEEA124
:143D1800FFA1389680E08083818382838383EEA1FFA13496BE
:143D2C0080E08083818382838383EEA1FFA180E0808381837B
:143D400082838383E8A5F9A5389680E08083818382838383F9
:143D5400E8A5F9A5349680E08083818382838383E8A5F9A5C9
:143D680080E08083818382838383CC24C2C0CE0104969B83DC
:143D7C008A838CE08883E091B001F091B1012385E091B2018E
:143D9000F091B30100810E94310EA02E002319F00FEF1FEF82
:143DA400D8C12D803C804424398A288A2F803E8044243B8A92
:143DB8002A8A2984388444243D8A2C8A28883988442437FCE9
:143DCC004094552447FC5094E8A5F9A560807180828093805E
:143DE000620C731C841C951C6082718282829382CF01049629
:143DF4002A883B88442437FC4094552447FC5094FC0160805A
:143E0800718082809380620C731C841C951C60827182828279
:143E1C00938288A599A508962C883D88442437FC4094552413
:143E300047FC5094FC016080718082809380620C731C841CD7
:143E4400951C60827182828293822B843A8444243F8A2E8A75
:143E58002D843C844424398E288E2F843E8444243B8E2A8EA2
:143E6C002E883F88442437FC4094552447FC5094EEA1FFA187
:143E80006080718082809380620C731C841C951C6082718225
:143E940082829382CF010496288C398C442437FC4094552436
:143EA80047FC5094FC016080718082809380620C731C841C5F
:143EBC00951C60827182828293828EA19FA108965C012A8C33
:143ED0003B8C442437FC4094552447FC5094FC01608071803A
:143EE40082809380620C731C841C951C608271828282938279
:143EF800C394CE1408F43BCF40908B0150908C012090890174
:143F0C0030908A01EEA1FFA1008111812281338198010027FD
:143F200011275A924A923A922A920E941E402E2C33244424EC
:143F340055245A924A923A922A920E941E40EEA1FFA10083FE
:143F4800118322833383CF0104966C0140908B0150908C01D6
:143F5C002090890130908A01FC0100811181228133819801CC
:143F7000002711275A924A923A922A920E941E402E2C3324DD
:143F8400442455245A924A923A922A920E941E40F60100837E
:143F98001183228333838EA19FA108966C0140908B01509070
:143FAC008C012090890130908A01FC01008111812281338188
:143FC0009801002711275A924A923A922A920E941E402E2C4B
:143FD4003324442455245A924A923A922A920E941E40F6015A
:143FE800008311832283338340908F015090900120908D0144
:143FFC0030908E01E8A5F9A50081118122813381980100270D
:1440100011275A924A923A922A920E941E402E2C33244424FB
:1440240055245A924A923A922A920E941E40E8A5F9A5008311
:14403800118322833383CF0104966C0140908F0150909001DD
:14404C0020908D0130908E01FC0100811181228133819801D3
:14406000002711275A924A923A922A920E941E402E2C3324EC
:14407400442455245A924A923A922A920E941E40F60100838D
:1440880011832283338388A599A508966C0140908F0150907F
:14409C00900120908D0130908E01FC0100811181228133818B
:1440B0009801002711275A924A923A922A920E941E402E2C5A
:1440C4003324442455245A924A923A922A920E941E40F60169
:1440D800008311832283338340E050E060E070E0E8A5F9A557
:1440EC0020843184428453844215530564057505ACF4CF01C8
:1441000008966C0140E050E061E070E0FC01208031804280AF
:144114005380241A350A460A570A208231824282538215C0D3
:1441280088A599A508965C0140E050E061E070E0FC0120809F
:14413C00318042805380240E351E461E571E208231824282B2
:144150005382002711276C960E940741249608950E94CD3F36
:144164000E941241A19782E0C82E2090CD01222021F00027CA
:14417800C4D261E001C066278E01055E1F4F0E9487148E01E2
:14418C00075E1F4F0E9421158E01015E1F4F0E94B6158E011C
:1441A000035E1F4F0E946516A090B6018E01065E1F4F0E9435
:1441B4006217EE24FF240EC0222428822DA53EA50BA51CA565
:1441C800E5DB0030010709F408C0C70101967C012C2C33249B
:1441DC00E214F3046CF32C2C3324E214F30411F444275527FB
:1441F000EE24FF2410C081E088839E01235F3F4F8E010F5F9E
:144204001F4FC6DB0030010709F408C0C70101967C012C2C66
:144218003324E214F3045CF32C2C3324E214F30401F49E01CF
:14422C00235F3F4F0DA51EA5F2D968019E012F5F3F4F0BA55A
:144240001CA5ACDA780144275527002309F44160CC2009F419
:1442540042608FEF8093B4018093B5018093B7019FEF909329
:14426800BA018093B9018093B6018093BB0181E08093B801F4
:14427C000B8D1C8D0E94BE14098D0E9456150F8D18A10E94DF
:144290000D160D8D1E8D0E9476160A2D0E94B5170A8D0E94A6
:1442A4006917662311F001E02AD28A01A1960E9407412496B9
:1442B80008950E943F415901A8012697CC84DD84CC2029F4B9
:1442CC00DD2019F40FEF1FEF4BC02090B601222019F40FEF09
:1442E0001FEF44C01A01232C33242C82CA0190708D83282E18
:1442F40033242A0C3B1CE091B201F091B3014084518442148A
:14430800530418F40FEF1FEF2DC0CE0104969B838A8382E04F
:14431C008883E091B001F091B101208DE091B201F091B30127
:1443300000810E941B0E002319F00FEF1FEF16C0DB82CA8276
:14434400A882E091B001F091B1012589E091B201F091B301DF
:1443580000810E941B0E002319F00FEF1FEF02C000271127AC
:14436C0026960C9446410E943F415901A8012697CC84DD84C7
:14438000CC2029F4DD2019F40FEF1FEF4BC02090B601222056
:1443940019F40FEF1FEF44C01A01232C33242C82CA019070BE
:1443A8008D83282E33242A0C3B1CE091B201F091B30140849A
:1443BC0051844214530418F40FEF1FEF2DC0CE0104969B83DF
:1443D0008A8382E08883E091B001F091B101208DE091B20139
:1443E400F091B30100810E941B0E002319F00FEF1FEF16C036
:1443F800DB82CA82A882E091B001F091B1012589E091B201B7
:14440C00F091B30100810E94310E002319F00FEF1FEF02C00B
:144420000027112726960C944641AA92CA92A02E2597209074
:14443400BD012A1419F400271127CBC0AA2009F45DC0CE01CE
:1444480004969B838A8381E08883E091B001F091B101248135
:14445C00E091B201F091B30100810E94310E002319F00FEF67
:144470001FEFB1C08C818F7D8C83CE0104969B838A8381E09C
:144484008883E091B001F091B1012481E091B201F091B301C6
:1444980000810E941B0E002319F00FEF1FEF97C003E010E062
:1444AC000E946E0D82E08C832090CB01222011F080688C83B8
:1444C0002090CC01222019F08C8180638C83CE0104969B839A
:1444D4008A8381E08883E091B001F091B1012489E091B20135
:1444E800F091B30100810E941B0EC02E002309F46AC00FEF09
:1444FC001FEF6BC0CE0104969B838A8381E08883E091B00151
:14451000F091B1012481E091B201F091B30100810E94310E04
:14452400C02E002319F00FEF1FEF53C02090B60120FE04C001
:144538008C8180628C8303C08C818F7D8C83CE0104969B83FF
:14454C008A8381E08883E091B001F091B1012481E091B201C4
:14456000F091B30100810E941B0EC02E002319F00FEF1FEFA0
:1445740030C003E010E00E946E0D2090CB01222019F080E824
:144588008C8302C022242C822090CC01222019F08C818063A2
:14459C008C83CE0104969B838A8381E08883E091B001F09159
:1445B000B1012489E091B201F091B30100810E941B0EC02E05
:1445C400002319F00FEF1FEF04C0A092BD01002711272596DD
:1445D800C990A99008950E94CD3F0E94124166974CA15DA115
:1445EC00AEA0BFA02090CE01222019F00FEF1FEF7DC00AA051
:144600001BA0002029F4112019F40FEF1FEF74C0CC24DD243F
:1446140043C028A039A02C183D0880E190E08215930518F459
:1446280060E170E004C068A179A16C197D097B0116010AA0BE
:14463C001BA0200C311C398228829701860137DE0030010765
:1446500019F00FEF1FEF50C0CE010496998388839701860182
:1446640086DE0030010719F00FEF1FEF43C0F982E8829E010A
:144678002C5F3F4F86010AA01BA0000D111D0E94963FB801BE
:14468C000030010719F00EEF1FEF30C0CE0CDF1C08A019A0A8
:1446A000C014D10408F4B7CF1A01232C33242C8ACA01907099
:1446B4008D8BCE0144969B838A8382E08883E091B001F091F6
:1446C800B101228DE091B201F091B30100810E941B0EC02EEA
:1446DC00002319F00FEF1FEF09C081E08093CE01B092D00173
:1446F000A092CF010027112766960E94074124960895AA92DC
:14470400A02E25972090CD012A1419F40027112748C0AA201D
:1447180059F12090CE01222019F40FEF1FEF3FC000270E94A1
:14472C00D20E00277CDE0091CF011091D0010E9476162224D1
:144740002C82CE0104969B838A8381E0888323E2E091B2018E
:14475400F091B30100810E941B0E81E08093CD0101E00E940B
:14476800D20E0E94361319C000270E94D20E2090BB012C82D6
:14477C00CE0104969B838A8381E0888323E2E091B201F0917F
:14479000B30100810E941B0E22242092CD010E94361300273D
:1447A40011272596A99008952090CD01F801208200271127C0
:1447B80008950E944D41622F680127974F85442309F4F1C07F
:1447CC0080EE9FE18C159D0518F48FEFA82E0EC0C601803201
:1447E000E0E09E0718F4AA24A39406C025E030E086010E944B
:1447F400A941A02E662309F461E088E2841718F40FEF1FEF15
:1448080023C12090C001222029F52090CD01222031F00027DF
:14481C0072DF81E08093CA0103C022242092CA0101EC11E094
:144830000E94871403EC11E00E94211504EC11E00E94B61531
:1448440006EC11E00E9465162090B6012092C80109EC11E098
:144858000E94621700270E94D20E00270E94881022242C8233
:14486C00CE0104969B838A8381E08883E091B001F091B101E3
:144880002281E091B201F091B30100810E941B0E002319F0B0
:144894000FEF1FEFDBC080E48C83CE0104969B838A8381E001
:1448A8008883E091B001F091B1012785E091B201F091B30197
:1448BC0000810E941B0E002309F088C0AC826D83CE010496B1
:1448D0009B838A8382E08883E091B001F091B1012085E091D1
:1448E400B201F091B30100810E941B0EA02E002309F070C072
:1448F80005E010E00E946E0D8091B501880F880F880F876047
:14490C008C83CE0104969B838A8381E08883E091B001F091E5
:14492000B1012781E091B201F091B30100810E941B0EA02EB6
:14493400002309F04FC080E28C83413019F422242D820EC092
:1449480085E0841718F081E08D8308C084E1841718F082E0B0
:14495C008D8302C083E08D838D81880F880F880F880F880F01
:14497000880F87608D83CE0104969B838A8382E08883E09133
:14498400B001F091B1012289E091B201F091B30100810E9414
:144998001B0EA02E002309F01BC081E08093C0010027112789
:1449AC0051C061EC71E04427552709C0FA01E60FF71F2080F2
:1449C000222009F009C04F5F5F4F4A30E0E05E0798F30FEF5B
:1449D4001FEF3CC08FEF8093B4018093B5018093B7019FEF5D
:1449E8009093BA018093B9018093B6018093BB0181E0809303
:1449FC00B8010091C8010E94B5170091C1011091C2010E94CD
:144A1000BE140091C3010E9456150091C4011091C5010E94FF
:144A24000D160091C6011091C7010E9476160091C9010E946F
:144A380069172090CA01222011F001E05EDE22242092C00156
:144A4C000027112727960C9456410895249788EC90E09B83A9
:144A60008A832090C90D3090CA0D3982288223ED31E006EF9D
:144A74001BE00E94EF22249608950E941D41A801649786ED12
:144A88009DE0FE01389603E010E0FA93EA939A938A930E9407
:144A9C00BC4189ED9DE0FE013B9603E010E0FA93EA939A933C
:144AB0008A930E94BC418CED9DE0FE013E9603E010E0FA930D
:144AC400EA939A938A930E94BC418FED9DE0FE01719603E096
:144AD80010E0FA93EA939A938A930E94BC41CE010896FA017F
:144AEC00E370F070E80FF91F20802A82CE010896FA01F695B5
:144B0000E795F695E795F695E795E370F070E80FF91F2080B5
:144B14002B8226E030E08A010E94A941F801E370F070CE0138
:144B28000896E80FF91F20802C82CE010B96FA01E370F07060
:144B3C00E80FF91F20802D82CE010B96FA01F695E795F6950A
:144B5000E795F695E795E370F070E80FF91F20802E8226E0B6
:144B640030E08A010E94A941F801E370F070CE010B96E80F03
:144B7800F91F20802F82CE0102969983888323E030E006E237
:144B8C0014E00E945D210030010719F00FEF1FEF68C0CE01BD
:144BA00005969983888323E030E00AE214E00E945D210030FC
:144BB400010719F00FEF1FEF58C083E090E0998388839E011F
:144BC800225F3F4F8E010E5F1F4F0E94A83F83E090E09983E8
:144BDC0088839E012F5E3F4F8E010B5F1F4F0E94A83F42FFCF
:144BF00006C08A8181608A838D8181608D8345FF06C08B81DD
:144C040081608B838E8181608E8350FF06C08C8181608C839A
:144C18008F8181608F83CE0102969983888323E030E000E400
:144C2C0014E00E945D2158010030010719F00FEF1FEF17C0E3
:144C4000CE0105969983888323E030E001E314E00E945D21C4
:144C540058010030010719F00FEF1FEF06C05093D00D40934D
:144C6800CF0D0027112764960C9422410E943141580162979A
:144C7C00E091CF0DF091D00DE370F070EE0FFF1FEE0FFF1F90
:144C9000EA0DFB1D20803180428053802A823B824C825D8205
:144CA4002090CF0D3090D00D22FE14C02A803B804C805D80D1
:144CB8004FEF5FEF6FEF7FEF5A924A923A922A928A019B0119
:144CCC000E94BE400A831B832C833D83E091CF0DF091D00DEF
:144CE000F695E795F695E795F695E795E370F070EE0FFF1FDD
:144CF400EE0FFF1FEA0DFB1D20803180428053802E823F822B
:144D0800488659862090CF0D3090D00D25FE14C02E803F805D
:144D1C00488459844FEF5FEF6FEF7FEF5A924A923A922A9232
:144D30008A019B010E94BE400E831F832887398726E030E0F0
:144D44000091CF0D1091D00D0E94A941F801E370F070EE0F3B
:144D5800FF1FEE0FFF1FEA0DFB1D20803180428053802A8669
:144D6C003B864C865D862090CF0D3090D00D30FE14C02A84E4
:144D80003B844C845D844FEF5FEF6FEF7FEF5A924A923A92C3
:144D94002A928A019B010E94BE400A871B872C873D870AEEE6
:144DA80010E00E949A40180129010A811B812C813D810E9414
:144DBC00CF423A932A931A930A93810192010E946944180181
:144DD000290106EE10E00E949A403A932A931A930A938101EF
:144DE40092010E94EF420E9490420A831B832C833D830AEE4F
:144DF80010E00E949A40180129010E811F81288539850E94BC
:144E0C00CF423A932A931A930A93810192010E946944180130
:144E2000290106EE10E00E949A403A932A931A930A9381019E
:144E340092010E94EF420E9490420E831F83288739870AEEF6
:144E480010E00E949A40180129010A851B852C853D850E9463
:144E5C00CF423A932A931A930A93810192010E9469441801E0
:144E7000290106EE10E00E949A403A932A931A930A9381014E
:144E840092010E94EF420E9490420A871B872C873D8788E12D
:144E980090E00A811B812C813D818A930E94D23F18012901F1
:144EAC004FEF50E060E070E024223522462257222E864FEF84
:144EC00050E060E070E02A803B804C805D801201442437FC62
:144ED4004094552447FC509424223522462257222F8688E0BB
:144EE80090E00A811B812C813D818A930E94D23F18012901A1
:144EFC004FEF50E060E070E02422352246225722288A4FEF36
:144F100050E060E070E02A803B804C805D80242235224622BA
:144F24005722298ACE010E969983888324E030E000ED13E0BF
:144F38000E945D210030010719F00FEF1FEFADC088E190E0B2
:144F4C000E811F81288539858A930E94D23F180129014FEF66
:144F600050E060E070E024223522462257222E864FEF50E0DD
:144F740060E070E02E803F80488459841201442437FC409401
:144F8800552447FC509424223522462257222F8688E090E06A
:144F9C000E811F81288539858A930E94D23F180129014FEF16
:144FB00050E060E070E02422352246225722288A4FEF50E08F
:144FC40060E070E02E803F80488459842422352246225722B5
:144FD800298ACE010E969983888324E030E004ED13E00E94DE
:144FEC005D210030010719F00FEF1FEF54C088E190E00A856A
:145000001B852C853D858A930E94D23F180129014FEF50E008
:1450140060E070E024223522462257222E864FEF50E060E018
:1450280070E02A843B844C845D841201442437FC409455240B
:14503C0047FC509424223522462257222F8688E090E00A859F
:145050001B852C853D858A930E94D23F180129014FEF50E0B8
:1450640060E070E02422352246225722288A4FEF50E060E0CA
:1450780070E02A843B844C845D842422352246225722298A85
:14508C00CE010E969983888324E030E008ED13E00E945D215A
:1450A000580162960C9438410E9431415801A0978E01025EFF
:1450B4001F4F0E9422178FE090E00E8D1F8D222733278A93B9
:1450C8000E949D410A8F1B8F2C8F3D8FE091CF0DF091D00DDF
:1450DC00E370F070EE0FFF1FEE0FFF1FEA0DFB1D2080318077
:1450F000428053802A823B824C825D822090CF0D3090D00DD8
:1451040022FE14C02A803B804C805D804FEF5FEF6FEF7FEF3D
:145118005A924A923A922A928A019B010E94BE400A831B8341
:14512C002C833D83E091CF0DF091D00DF695E795F695E79547
:14514000F695E795E370F070EE0FFF1FEE0FFF1FEA0DFB1D5C
:1451540020803180428053802E823F82488659862090CF0DB7
:145168003090D00D25FE14C02E803F80488459844FEF5FEFFD
:14517C006FEF7FEF5A924A923A922A928A019B010E94BE403C
:145190000E831F832887398726E030E00091CF0D1091D00D68
:1451A4000E94A941F801E370F070EE0FFF1FEE0FFF1FEA0D92
:1451B800FB1D20803180428053802A863B864C865D8620900F
:1451CC00CF0D3090D00D30FE14C02A843B844C845D844FEFF8
:1451E0005FEF6FEF7FEF5A924A923A922A928A019B010E9488
:1451F400BE400A871B872C873D870A811B812C813D810E94CB
:14520800CF42180129010A8D1B8D2C8D3D8D0E94CF423A93FC
:14521C002A931A930A93810192010E9469441801290106EEDC
:1452300010E00E949A403A932A931A930A93810192010E9473
:14524400EF420E9490420A831B832C833D830E811F8128853B
:1452580039850E94CF42180129010A8D1B8D2C8D3D8D0E942A
:14526C00CF423A932A931A930A93810192010E9469441801CC
:14528000290106EE10E00E949A403A932A931A930A9381013A
:1452940092010E94EF420E9490420E831F83288739870A85FB
:1452A8001B852C853D850E94CF42180129010A8D1B8D2C8DF1
:1452BC003D8D0E94CF423A932A931A930A93810192010E94D6
:1452D00069441801290106EE10E00E949A403A932A931A9343
:1452E4000A93810192010E94EF420E9490420A871B872C87D7
:1452F8003D8788E190E00A811B812C813D818A930E94D23FA3
:14530C00180129014FEF50E060E070E02422352246225722CE
:145320002E864FEF50E060E070E02A803B804C805D801201A6
:14533400442437FC4094552447FC50942422352246225722D8
:145348002F8688E090E00A811B812C813D818A930E94D23F62
:14535C00180129014FEF50E060E070E024223522462257227E
:14537000288A4FEF50E060E070E02A803B804C805D80242225
:14538400352246225722298A88E190E00E811F8128853985B7
:145398008A930E94D23F180129014FEF50E060E070E02422AA
:1453AC003522462257222A8A4FEF50E060E070E02E803F8096
:1453C000488459841201442437FC4094552447FC50942422C8
:1453D4003522462257222B8A88E090E00E811F812885398566
:1453E8008A930E94D23F180129014FEF50E060E070E024225A
:1453FC003522462257222C8A4FEF50E060E070E02E803F8044
:145410004884598424223522462257222D8A88E190E00A8542
:145424001B852C853D858A930E94D23F180129014FEF50E0E0
:1454380060E070E024223522462257222E8A4FEF50E060E0EC
:14544C0070E02A843B844C845D841201442437FC40945524E3
:1454600047FC509424223522462257222F8A88E090E00A8573
:145474001B852C853D858A930E94D23F180129014FEF50E090
:1454880060E070E02422352246225722288E4FEF50E060E09E
:14549C0070E02A843B844C845D842422352246225722298E59
:1454B000CE010E96998388832CE030E004E912E00E945D2133
:1454C400A0960C9438410E941D415801669782EE9DE0FE0143
:1454D8003A960CE010E0FA93EA939A938A930E94BC4188ECAD
:1454EC0090E08A159B0518F40FEF1FEF36C008EC10E0950175
:145500000E94FE3FA80141505040CA01892F992790708A839E
:14551400CA0190708B83CE0102969983888322E030E006E123
:1455280012E00E945D210030010719F00FEF1FEF16C0CE016B
:14553C000A96998388832CE030E001EC1AE00E945D21003041
:14555000010719F00FEF1FEF06C0B092D40DA092D30D002708
:14556400112766960C9422412090D30D3090D40DF80131821F
:1455780020820027112708950E9431415901402F2B97842F2F
:14558C00877029F080E496E08A159B0518F40FEF1FEF1EC1EB
:1455A00085010E94C2421801290102EE10E00E949A403A935F
:1455B4002A931A930A93810192010E94EF420F831887298713
:1455C8003A878E010A5F1F4F0E9421156E8177276830E0E0EB
:1455DC007E0709F44AC088E090E0861797074CF06230E0E08E
:1455F0007E0759F06430E0E07E0711F172C06031E0E07E07F6
:1456040009F452C06CC00EED10E00E949A40CE0107969A9357
:145618008A930E945F440E94904258010AED10E00E949A40EC
:14562C00CE0107969A938A930E945F440E949042B80154C02E
:1456400006ED10E00E949A40CE0107969A938A930E945F44FC
:145654000E949042580102ED10E00E949A40CE0107969A9381
:145668008A930E945F440E949042B80139C00EEC10E00E941A
:14567C009A40CE0107969A938A930E945F440E949042580178
:145690000AEC10E00E949A40CE0107969A938A930E945F44A9
:1456A4000E949042B8011EC006EC10E00E949A40CE0107961D
:1456B8009A938A930E945F440E949042580102EC10E00E9402
:1456CC009A40CE0107969A938A930E945F440E949042B801C8
:1456E00003C00FEF1FEF7AC01501232C33242A82C50190707F
:1456F4008B831B01232C33242C82CB0190708D8340FF20C029
:14570800CE0102969983888322E030E004ED11E00E945D21EB
:14571C000030010719F00FEF1FEF5AC0CE0104969983888382
:1457300022E030E004E211E00E945D210030010719F00FEF1D
:145744001FEF4AC041FF22C0CE0102969983888322E030E077
:1457580008ED11E00E945D2158010030010719F00FEF1FEF91
:14576C0037C0CE0104969983888322E030E008E211E00E9413
:145780005D2158010030010719F00FEF1FEF26C042FF22C0E8
:14579400CE0102969983888322E030E00CED11E00E945D2157
:1457A80058010030010719F00FEF1FEF13C0CE0104969983EF
:1457BC00888322E030E00CE211E00E945D215801003001072C
:1457D00019F00FEF1FEF02C0002711272B960C943841AA9279
:1457E400A02E239722242A82A0FE03C0822D80638A83A1FE98
:1457F80003C08A818C608A83A2FE03C08A8183608A83CE01A9
:14580C0002969983888321E030E008E411E00E945D21239602
:14582000A99008954A93402F2397413010F441E004C084E0DA
:14583400841708F444E0842F81508A83CE0102969983888386
:1458480021E030E00FE411E00E945D212396499108950E9465
:14585C001D415801249725E030E085010E94FE3FA8011A0188
:14587000232C33242A82CA0190708B83CE010296998388836B
:1458840022E030E00EED11E00E945D2124960C9422410E9493
:145898001D415801249725E030E085010E94FE3FA8011A014C
:1458AC00232C33242A82CA0190708B83CE010296998388832F
:1458C00022E030E00AED11E00E945D2124960C9422410E945B
:1458D400CD3F0E9431412A97AC88BD8848EE53E060E070E06D
:1458E800088919892A893B897A936A935A934A930E941E402E
:1458FC001501442455245A924A923A922A920E94BE400E8320
:145910001F832887398788E190E00E811F81288539858A93E2
:145924000E94D23F180129014FEF50E060E070E024223522DE
:14593800462257222A824FEF50E060E070E02E803F80488497
:14594C0059841201442437FC4094552447FC509424223522AB
:14596000462257222B8288E090E00E811F81288539858A9316
:145974000E94D23F180129014FEF50E060E070E0242235228E
:14598800462257222C824FEF50E060E070E02E803F80488445
:14599C00598424223522462257222D82CE010296998388835F
:1459B00024E030E00CE511E00E945D212A960E943841249638
:1459C40008954A935A93A801249725E030E08A010E94FE3F85
:1459D800A8011A01232C33242A82CA0190708B83CE01029665
:1459EC009983888322E030E00AE511E00E945D2124965991CA
:145A0000499108954A935A93A801249725E030E08A010E94AB
:145A1400FE3FA8011A01232C33242A82CA0190708B83CE0183
:145A280002969983888322E030E008E511E00E945D212496E1
:145A3C00599149910895AA92BA9258012697AA2029F4BB2095
:145A500019F40FEF1FEF42C0CE0102969983888324E030E085
:145A640000E613E00E94B9210030010719F00FEF1FEF32C09A
:145A780088E190E00A811127222733278A930E949D41180125
:145A8C0029016B8077248824992443016624772426283728D7
:145AA0004828592888E090E00C811127222733278A930E9402
:145AB4009D41202A312A422A532A6D80772488249924262833
:145AC800372848285928F50120823182428253820027112737
:145ADC002696B990A99008950E94CD3F269788E190E00E8108
:145AF0001F81288539858A930E94B041180129018FEF90E0B6
:145B0400A0E0B0E0282239224A225B222A828FEF90E0A0E0D5
:145B1800B0E02E803F8048845984120144245524282239223A
:145B2C004A225B222B8288E090E00E811F81288539858A9340
:145B40000E94B041180129018FEF90E0A0E0B0E028223922D8
:145B54004A225B222C828FEF90E0A0E0B0E02E803F8048846F
:145B68005984282239224A225B222D82CE0102969983888381
:145B7C0024E030E000E613E00E945D212A9608950E94314197
:145B900058012697AA2029F4BB2019F40FEF1FEF4EC0CE0133
:145BA40002969983888324E030E004EC13E00E94B92100308B
:145BB800010719F00FEF1FEF3EC088E190E00A8111272227D9
:145BCC0033278A930E949D41180129016B807724882499249C
:145BE000430166247724262837284828592888E090E00C8145
:145BF4001127222733278A930E949D41202A312A422A532A97
:145C08006D80772488249924262837284828592844E150E0A4
:145C1C0060E070E05A924A923A922A928A019B010E94BE40CD
:145C3000F50100831183228333830027112726960C943841C4
:145C44000E94CD3F269784E190E0A0E0B0E00E811F81288520
:145C58003985BA93AA939A938A930E9418400E831F832887CA
:145C6C00398788E190E00E811F81288539858A930E94B04141
:145C8000180129018FEF90E0A0E0B0E0282239224A225B2241
:145C94002A828FEF90E0A0E0B0E02E803F8048845984120129
:145CA80044245524282239224A225B222B8288E090E00E8165
:145CBC001F81288539858A930E94B041180129018FEF90E0E8
:145CD000A0E0B0E0282239224A225B222C828FEF90E0A0E006
:145CE400B0E02E803F8048845984282239224A225B222D82C9
:145CF800CE0102969983888324E030E004EC13E00E945D21F3
:145D0C002A9608954A935A93A8012C9782E08A838AEC8B83FD
:145D200083EE8C8389E08D83CE0102969983888324E030E0D4
:145D340008E610E00E945D2183EA8A8346FF07C080EC8B835D
:145D480088EC8C8382EC8D8304C083EA8B838C838D83CA011D
:145D5C00807891708030890739F084EC8E838CEC8F8386EC54
:145D7000888704C083EA8E838F83888783EA89878A878B870D
:145D8400CE010296998388832AE030E007EA1AE00E945D2158
:145D9800CA01837090708030890719F080E28A8302C088ED4A
:145DAC008A83CE0102969983888321E030E006EB1AE00E94AA
:145DC0005D2145FF03C001E0BFD002C00027BCD0CA018078A2
:145DD400917080308907E9F050FF09C082EB8A838BE88B838E
:145DE80086EB8C838BE98D8308C080EB8A8380E88B8384EB7E
:145DFC008C8380E98D83CE0102969983888324E030E002EA7D
:145E10001AE00E945D2140FF2AC088EF8A83CE010296998334
:145E2400888321E030E000EB18E00E945D212AEF30E007E03B
:145E3800A3DB07E0D2DC01E0F1DC04E610E009DD04EF11E0F1
:145E4C0024DD88EC90E09983888309E013EE2AEC32E039DD0E
:145E600008E210E0B0DD0AE010E0CCDD0CC088ED8A83CE0127
:145E740002969983888321E030E000EB18E00E945D2141FF07
:145E880003C089ED8A8302C088ED8A83CE01029699838883EE
:145E9C0021E030E00DE317E00E945D2142FF03C001E081D0A4
:145EB00002C000277ED044FF03C001E0A2D002C000279FD0F6
:145EC400CA0188609093D20D8093D10D0E9436132224209241
:145ED800D50D46FF04C0822D8A5F8093D50DCA01807891707A
:145EEC008030890729F08091D50D8A5F8093D50DCA018471B8
:145F000090708030890729F08091D50D805F8093D50DCA01A2
:145F1400837090708030890729F08091D50D8C5F8093D50D5A
:145F2800002711272C965991499108952090D10D3090D20DB6
:145F3C00F80131822082002711270895AA92A02E2B97AA2071
:145F5000B9F08EEE9DE0FE01329609E010E0FA93EA939A93C4
:145F64008A930E94BC41CE0102969983888329E030E008EBD3
:145F780014E00E945D2116C087EF9DE0FE01329609E010E098
:145F8C00FA93EA939A938A930E94BC41CE0102969983888380
:145FA00029E030E008EB14E00E945D212B96A9900895AA92FA
:145FB400A02E2697AA2049F080EC8A8382EC8B8384EC8C83D7
:145FC80086EC8D830BC084E090E0998388832BE830E08E01CB
:145FDC000E5F1F4F0E94B63FCE0102969983888324E030E09D
:145FF00008E91AE00E945D210E9436132696A9900895AA92D9
:14600400A02E2697AA2049F080E28A8388E28B8380E38C83A1
:1460180088E38D830BC084E090E09983888323EA30E08E0187
:14602C000E5F1F4F0E94B63FCE0102969983888324E030E04C
:146040000EE91AE00E945D210E9436132696A99008950E941C
:146054004D41B801FB014381407C83818F73C82E218020FEBA
:1460680018C0A82EA694A694A69418E0082F0E948240802F86
:14607C008F5FC82E2090CB0D3090CC0D222011F4332029F058
